:06000000B82A00340034B0
:1000080018108B13F1000308F2008B1813288C18B2
:10001800162872088300F10E710E8B1709008B10D9
:1000280028200D288C1035200D28C03001050138F6
:1000380081000A3081000B110B1D20280800D00117
:100048001130920091010800921A302812192E28B6
:10005800121A3128232008009212D5019101121595
:100068000800921A4728121E3D28051D78281212EA
:100078004428D00A0310051D0314D20CD30CD40C49
:100088009216910108000C30500603195B280F30B6
:1000980050060319642814305006031D78205208AE
:1000A800F0005308D2005408D3007008D400F03090
:1000B800D3050310D20CD30CD20CD30CD20CD30C16
:1000C8000310D30C5208013A031D7828D1030330DA
:1000D800D105031D7828D103530856180C22561C45
:1000E8005022FF39031D0023232008008B138B1B8C
:1000F8007A2883169C111C159A0074089B005530A9
:100108009D00AA309D009C149C18882883128B1788
:1001180008008B13831600309B001C141C189228AF
:100128001A08D90083128B1708001F149F14561C35
:10013800AF289F189B281E0859020319AF289F143F
:100148000318AD28B62019201920192019201920C4
:100158009B28B420A7281F10B2200800F001BA2855
:10016800DA0AB728DA035A080022F000C330070574
:10017800700487000800E1008030E000DC01DD0148
:10018800E328DC19CD285C1DCF28DC18CD285C1CA1
:10019800CF280330DC07DC1BD7285C1FD928DC1AE2
:1001A800D7285C1ED9283030DC07DD19E1285D1D11
:1001B800E328DD18E1285D1CE3280330DD07E10DA5
:1001C800DC0DDD0DE00CE008031DC5280800561500
:1001D800DC0E5C089422D8000830D700D80C031C29
:1001E800071003180714871087148710D703031DF7
:1001F800F228DC0E561D02295611ED28DC0E851258
:06020800851685120800B6
:100400008A018A140739820704340C3408341834FA
:1004100010343034203424348A018A143F3982075E
:100420001B341D341F34213423342534273429341C
:100430002B341934003438340034003400340034A0
:10044000053409343D344134003467340034003419
:1004500000340034003400340034003400340034FC
:1004600000340034003400340034003400340034EC
:1004700000340034003400340034003400340034DC
:1004800000340034003400340034003400340034CC
:100490000034003448340034003400340034003474
:1004A0008A018A143F398207003400340034003452
:1004B000003400340034003400340034003400349C
:1004C00000340034003400340034003451345B34E0
:1004D0000034653400340034003400340034003417
:1004E000003400340034003400340034003400346C
:1004F000003400340034003400340034003400345C
:10050000003400340034003400340034003400344B
:1005100000340034003400340034003469340034D2
:1005200000340034003400348A018A140F39820701
:100530008134CF3492348634CC34A434A0348F3414
:10054000803484348834E034B134C234B034B834C4
:10055000F000093C0318FF348A14820700340A347F
:1005600014341E34283432343C34463450345A3433
:100570008B018316013081001F3085008701083010
:10058000910096010430950010309F0002308C00DD
:10059000E1309200831285018701073099000C3009
:1005A0009F00163098008C0150308B007030D900BD
:1005B0008B17D601D50123204530DC00561C851E43
:1005C0001814121D6300181056189920031ADE2AF9
:0605D0008516DE2AB82AA0
:10060000F00003308A0070088200590AD6195E0A89
:100610000C2B5903D6195E030F39F000F030D61DAC
:100620005905D6195E057004DE00DC00EB20D615F6
:10063000080000302C2B10302C2B20302C2B30308D
:100640002C2B40302C2B50302C2B60302C2B70302E
:100650002C2B80302C2B9030F0005E08D61D5908D2
:100660000F39F004700EDE00DC00EB20D615080018
:10067000D61D08005E08D900442B590A031DD90075
:10068000442BD908031DD903D611DE01DF014C2B01
:1006900020308506851A08005908DC00DD01EB20B2
:1006A0000800DB01B6201920DB0A28305B06031D99
:1006B000522BB2200800DB01B4201920DB0A2830BD
:1006C0005B06031D5C2BB220080056140800561070
:1006D00008001F1419209F149F186C2B1E08DC00A3
:0606E000DD01EB20080023
:02400E00F43F7D
:00000001FF
