:020000040000FA
:020000001D29B8
:040002000034003492
:0800080018108B1319208B184E
:100010000E288C1810281D208B17090032200B2861
:040020003F200B284A
:0C0024008000840F0800840B800E000E8A
:1000300008001220030E122008001520F200720E94
:10004000830015200800C0300105013881000A3006
:1000500081000B110B1D2A280800D00111309200DD
:10006000910108008B10921A3B2812193928121A94
:100070003C282D20080092129101121508008C10C6
:10008000921A5228121E4828051D9B2812124F282A
:10009000D00A0310051D0314D20CD30CD40C9216F5
:1000A000910108000C305006031966280F305006E5
:1000B00003196E2814305006031D9B205208F000CF
:1000C0005308D2005408D3007008D400F030D30590
:1000D000D20CD30CD20CD30CD20CD30C0310D30CF7
:1000E0005208013A031D9B28D1030330D105031D9B
:1000F000D10353080B22F000003803199B28700825
:100100008A018200D901D72023202320D90A023076
:100110005906031D8328D3209828D901D5202320F0
:100120002320D90A02305906031D8E28D32098288F
:100130008312203085062D2008008B138B1B9D28F1
:1001400083169C111C159A0074089B0055309D0065
:10015000AA309D009C149C18AB2883128B170800B2
:100160008B13831600309B001C141C18B5281A082A
:10017000D70083128B1708001F149F149F18BE28E6
:100180001E0857020319D0289F140318CE28D72021
:1001900023202320232023202320BE28D520C82845
:1001A0001F10D3200800F001DB28D80AD828D80374
:1001B00058080022F000C3300705700487000800CB
:1001C000871EE72807190734071E06340534871DE4
:1001D000EE2807190134071E02340334071E0034C9
:1001E0000434DD008030DC00DA01DB011529DA1986
:1001F000FF285A1D0129DA18FF285A1C012903304B
:10020000DA07DA1B09295A1F0B29DA1A09295A1E9B
:100210000B293030DA07DB1913295B1D1529DB1890
:1002200013295B1C15290330DB07DD0DDA0DDB0D0F
:0A023000DC0CDC08031DF7280800B1
:06023A008B018316013068
:1002400081001F308500870108309100960107303A
:10025000950010309F0002308C00E1309200831234
:1002600085018701073099000C309F0016309800F7
:100270008C0150308B007030D7002D208430D60098
:100280008B1720308506203084000330BC2046299F
:020290004829FB
:100400008A140739820704340C3408341834103441
:100410003034203424348A143F39820700340034C5
:10042000003400340034003400340034003400342C
:100430000034983400340034003400340034003484
:1004400082348D34003400340034003400340034FD
:1004500000340034003400340034003400340034FC
:1004600000340034003400340034003400340034EC
:1004700000340034003400340034003400340034DC
:1004800000340034003400340034003400340034CC
:100490000034003400340034003400348A148207FD
:1004A00003349F3425340D349934493441341F3496
:1004B00001340934F000093C0318FF348A14820720
:1004C00000340A3414341E34283432343C34463474
:0404D00050345A3416
:02400E00F43F7D
:00000001FF
