:020000040000FA
:020000002029B5
:040002000034003492
:0800080018108B1319208B184E
:100010000E288C1810281D208B17090032200B2861
:040020003F200B284A
:0C0024008000840F0800840B800E000E8A
:1000300008001220030E122008001520F200720E94
:10004000830015200800C0300105013881000A3006
:1000500081000B110B1D2A280800F50111309200B8
:10006000910108008B10921A3B2812193928121A94
:100070003C282D20080092129101121508008C10C6
:10008000921A5228121E4828051D832812124F2842
:10009000F50A0310051D0314F70CF80CF90C921661
:1000A000910108000C307506031966280F3075069B
:1000B00003196E2814307506031D83207708F0009D
:1000C0007808F7007908F8007008F900F030F805B2
:1000D000F70CF80CF70CF80CF70CF80C0310F80CF4
:1000E00077080106031D8328F6030330F605031D78
:1000F0008328F6037808DE2000380319832882005D
:100100008312203085062D2008008B138B1B852839
:1001100083169C111C159A007D089B0055309D008C
:10012000AA309D009C149C18932883128B170800FA
:100130008B13831600309B001C141C189D281A0872
:10014000F30083128B1708001F149F149F18A62812
:100150001E0873020319B3289F140318B820031C48
:10016000BA202320A6281F10B6200800F001BE28C0
:10017000F40ABB28F4037408D420F000C330070548
:10018000700487000800871ECA2807190734071E55
:1001900006340534871DD12807190134071E02349F
:1001A0000334071E003404340739820704340C3446
:1001B0000834183410343034203424343F39820762
:1001C000003400340034003400340034003400348F
:1001D000003400340034003400340034003400347F
:1001E000003400340034003400340034003400346F
:1001F000003400340034003400340034003400345F
:10020000003400340034003400340034003400344E
:10021000003400340034003400340034003400343E
:10022000003400340034003400340034003400342E
:10023000003400340034003400340034003400341E
:100240008B018316013081001F3085008701083043
:10025000910096010730950010309F0002308C000D
:10026000E1309200831285018701073099000C303C
:100270009F00163098008C0150308B007030F300D6
:100280002D208430FB008B17203085062030840021
:0402900003304929C5
:02400E00F43F7D
:00000001FF
