:020000040000FA
:02000000B72A1D
:040002000034003492
:0800080018108B1319208B184E
:100010000E288C1810281D208B17090032200B2861
:040020003F200B284A
:0C0024008000840F0800840B800E000E8A
:1000300008001220030E122008001520F200720E94
:10004000830015200800C0300105013881000A3006
:1000500081000B110B1D2A280800D00111309200DD
:10006000910108008B10921A3B2812193928121A94
:100070003C282D20080092129101121508008C10C6
:10008000921A5228121E4828051D802812124F2845
:10009000D00A0310051D0314D20CD30CD40C9216F5
:1000A000910108000C305006031966280F305006E5
:1000B00003196E2814305006031D80205208F000EA
:1000C0005308D2005408D3007008D400F030D30590
:1000D000D20CD30CD20CD30CD20CD30C0310D30CF7
:1000E0005208013A031D8028D1030330D105031DB6
:1000F0008028D103530856180C22561C5022D500D4
:100100002D2008008B138B1B822883169C111C1535
:100110009A0074089B0055309D00AA309D009C14E5
:100120009C18902883128B1708008B1383160030BD
:100130009B001C141C189A281A08D70083128B17CE
:1001400008001F149F149F18A3281E0857020319A4
:10015000B5289F140318B328BC2023202320232074
:1001600023202320A328BA20AD281F10B820080080
:10017000F001C028D80ABD28D80358080022F00092
:10018000C3300705700487000800871ECC280719B4
:100190000734071E06340534871DD3280719013498
:1001A000071E02340334071E00340434DD0080309F
:1001B000DC00DA01DB01FA28DA19E4285A1DE62806
:1001C000DA18E4285A1CE6280330DA07DA1BEE288E
:1001D0005A1FF028DA1AEE285A1EF0283030DA07B3
:1001E000DB19F8285B1DFA28DB18F8285B1CFA28B5
:1001F0000330DB07DD0DDA0DDB0DDC0CDC08031D45
:08020000DC2808008516080047
:100400008A018A140739820704340C3408341834FA
:1004100010343034203424348A018A143F3982075E
:100420000134013401340134013401340134013424
:100430000134013400340134003400340034003419
:10044000003400340134013400341E3400340034EC
:1004500000340034003400340034003400340034FC
:1004600000340034003400340034003400340034EC
:1004700000340034003400340034003400340034DC
:1004800000340034003400340034003400340034CC
:1004900000340034023400340034003400340034BA
:1004A0008A018A143F398207023400340034003450
:1004B000003400340034003400340034003400349C
:1004C00000340034003400340034003404340F3479
:1004D00000341A3400340034003400340034003462
:1004E000003400340034003400340034003400346C
:1004F000003400340034003400340034003400345C
:10050000003400340034003400340034003400344B
:10051000003400340034003400340034203400341B
:1005200000340034003400348A018A148207033412
:100530009F3425340D349934493441341F34013407
:1005400009340534C134E534853421347134F00084
:10055000093C0318FF348A14820700340A34143427
:0E0560001E34283432343C34463450345A347D
:02056E008B01FF
:100570008316013081001F3085008701083091000B
:1005800096010730950010309F0002308C00E1305A
:100590009200831285018701073099000C309F007B
:1005A000163098008C0150308B007030D7008B17BC
:1005B00020308506203084000330D601D5012D205F
:1005C000561C851A1814630000005618A120031A3F
:1005D000EC2A85120316E02A1219EC2A03308A004D
:0805E0005508D5018200B72A7D
:10060000E02AE02A0221E02AD901BC20232023206D
:10061000D90A02305906031D052BB820E02AD9015A
:10062000BA2023202320D90A02305906031D102B9B
:10063000B820E02A5614A1201814E02A5610E02A07
:100640001F149F149F18222B1E08DA00DB010221C1
:02065000E02A9E
:02400E00F43F7D
:00000001FF
